:020000040800F2
:100000008006002089010008910100089301000882
:100010009501000897010008990100080000000000
:100020000000000000000000000000009B0100082C
:100030009D010008000000009F010008A7040008BF
:10004000A3010008A3010008A3010008A301000800
:10005000A3010008A3010008A3010008A3010008F0
:10006000A3010008A3010008A3010008A3010008E0
:10007000A3010008A3010008A3010008A3010008D0
:10008000A3010008A3010008A3010008A3010008C0
:10009000A3010008A3010008A3010008A3010008B0
:1000A000A3010008A3010008A3010008A3010008A0
:1000B00065050008A3010008A3010008A3010008CA
:1000C000A3010008A3010008A3010008A301000880
:1000D000A3010008A3010008A3010008A301000870
:1000E000A3010008A3010008A301000800F002F822
:1000F00000F03AF80AA090E8000C82448344AAF188
:100100000107DA4501D100F02FF8AFF2090EBAE885
:100110000F0013F0010F18BFFB1A43F0010318473B
:100120001808000038080000103A24BF78C878C1C9
:10013000FAD8520724BF30C830C144BF04680C60ED
:10014000704700000023002400250026103A28BF35
:1001500078C1FBD8520728BF30C148BF0B60704739
:100160001FB51FBD10B510BD00F031F81146FFF7E7
:10017000F7FF00F003FA00F04FF803B4FFF7F2FFC7
:1001800003BC00F057F800000948804709480047C1
:10019000FEE7FEE7FEE7FEE7FEE7FEE7FEE7FEE737
:1001A000FEE7FEE704480549054A064B7047000094
:1001B00005050008ED0000088000002080060020F2
:1001C000800200208002002070477047704775460B
:1001D00000F02CF8AE4605006946534620F00700B3
:1001E000854618B020B5FFF7DDFFBDE820404FF091
:1001F00000064FF000074FF000084FF0000B21F011
:100200000701AC46ACE8C009ACE8C009ACE8C009DD
:10021000ACE8C0098D46704710B50446AFF30080C6
:100220002046BDE81040FFF7A8BF00000048704717
:100230002000002001491820ABBEFEE72600020086
:10024000704700003948806940F400703749886180
:100250000846406820F4804048600846406840F402
:1002600000404860002032490860091D086030489D
:100270000C30006820F007002D490C31086008465A
:10028000006820F46060086000202949343108606B
:100290000846006840F4801008600846006840F096
:1002A000010008600846006840F4C030086020483B
:1002B000001D006820F002001D49091D0860081F8C
:1002C000006840F48070091F0860081D006840F451
:1002D000E040091D08600846006840F400400860DE
:1002E0000846006840F001000860012000E0401C62
:1002F00042F210718842FADB0D48001D006840F0A0
:1003000004000B49091D086000BF0948001D006872
:1003100000F004000028F8D10548001D006820F016
:1003200001000349091D08607047000000100240E9
:10033000042401402648806940F400602449886113
:100340002448006820F00C00224908600846006834
:1003500040F0080008600846006820F003000860CC
:100360000846006840F00300086006201A4908802B
:10037000FE20091D088018480838008840F0010058
:100380001549083908800846008820F002000880D6
:1003900011481C30008840F400400F491C3108808F
:1003A00060200D49103908800B482838008840F03B
:1003B00010000949283908800846008820F06000AC
:1003C00008800846008840F0080008807047000058
:1003D0000010024004080140282C01402E4800680B
:1003E0002E4908402C4908600846006840F48030D7
:1003F000086000BF2848006800F400300028F9D0E9
:100400002548406820F003002349486008464068BA
:1004100040F0010048602248006840F01000204988
:1004200008600846006820F003000860084600687D
:1004300040F0020008601848406820F47C1016491B
:1004400048600846406840F480304860084640688C
:1004500040F4E01048600846006840F08070086092
:1004600000BF0D48006800F000700028F9D00A486D
:10047000406820F00300084948600846406840F0A2
:100480000200486000BF0448406800F00C000828E3
:10049000F9D100207047000000100240FFFFF6FE77
:1004A00000200240704700B500F0C4F800BD000015
:1004B00030B54FF4E161481EB0F1807F00D31BE0FE
:1004C000481E4FF0E022506150170F22002804DB35
:1004D00013071C0E094B1C5406E013071D0E084B96
:1004E00000F00F04241F1D5500BF00204FF0E02234
:1004F00090610720106100BF30BD000000E400E003
:1005000018ED00E010B51348006840F001001149F3
:10051000086008464068104908400E49486008468F
:1005200000680E4908400B4908600846006820F43E
:10053000802008600846406820F4FE0048604FF4C0
:100540001F008860FFF7AEFF4FF0006004490860AD
:1005500010BD0000001002400000FFF8FFFFF6FE93
:1005600008ED00E000B54FF08040008A20F0010067
:100570004FF08041088200F00FF800BDFFF72EFF1A
:1005800072B600F06DF8FFF7D5FEFFF75BFEFFF7E0
:100590008FFF62B600BFFEE72348006840F001000D
:1005A000214908600846006840F40010086000BF58
:1005B0001D480838006800F002000028F8D01A48EA
:1005C0000838006820F0020017490839086016480A
:1005D000006820F0010014490860134834300068B6
:1005E00012490860104838300068486010480068B8
:1005F00020F470400E4908600846006840F400503E
:1006000008600846006820F00F000860084600688F
:1006100040F00200086006481030006840F0090011
:100620000349103108607047082401400000002091
:100630000008014000B509480068401C07490860EF
:1006400008460068B0F57A6F04D100F097F80020F2
:100650000249086000F062F800BD000018000020A8
:100660002B48806940F00500294988610846C06927
:1006700040F00100C8612748006820F0C00025490B
:1006800008600846006840F0C0000860084600683E
:1006900020F0300008600846006840F03000086034
:1006A0004720C90408850920888505200887800718
:1006B000008C40F0300008841748008840F4004067
:1006C000A1F844004FF4C04008830846008820F099
:1006D000100008800846008820F060000880084666
:1006E000008840F0080008800846808940F001003A
:1006F00088811C20002809DB00F01F0201219140A5
:100700004209920002F1E022C2F8001100BF7047D6
:1007100000100240000801404400004012490968EE
:10072000124A1268914205DA0F490968491C0E4ABB
:10073000116002E000210C4A11600D490968642231
:1007400091FBF2F1084A126801FB02F00949095CC9
:10075000094A118008493439098841F00101064AE3
:10076000343A1180704700001C0000200C0000206B
:1007700008000020A4070008342C01400848006845
:1007800020F47040064908600846006820F00F0019
:100790000860C804008840F00100C9040880704760
:1007A0000008014080828486888A8B8D8F91939582
:1007B00097999B9D9FA1A3A5A7A9ABADAEB0B2B4DD
:1007C000B6B8B9BBBDBFC0C2C4C6C7C9CACCCECFFC
:1007D000D1D2D4D5D7D8DADBDCDEDFE0E2E3E4E562
:1007E000E7E8E9EAEBECEDEEEFF0F1F2F3F4F5F522
:1007F000F6F7F7F8F9F9FAFAFBFBFCFCFDFDFDFE54
:10080000FEFEFEFFFFFFFFFFFFFFFFFFFFFFFEFEFD
:10081000FEFEFDFDFDFCFCFBFBFAFAF9F9F8F7F72B
:10082000F6F5F5F4F3F2F1F0EFEEEDECEBEAE9E8D2
:10083000E7E5E4E3E2E0DFDEDCDBDAD8D7D5D4D2EB
:10084000D1CFCECCCAC9C7C6C4C2C0BFBDBBB9B860
:10085000B6B4B2B0AEADABA9A7A5A3A19F9D9B991D
:10086000979593918F8D8B8A88868482807D7B7902
:1008700077757472706E6C6A68666462605E5C5AEA
:1008800058565452514F4D4B4947464442403F3DC4
:100890003B393836353331302E2D2B2A2827252465
:1008A0002321201F1D1C1B1A1817161514131211B3
:1008B000100F0E0D0C0B0A0A09080807060605059D
:1008C0000404030302020201010101000000000010
:1008D0000000000000000101010102020203030404
:1008E0000405050606070808090A0A0B0C0D0E0F79
:1008F0001011121314151617181A1B1C1D1F202176
:1009000023242527282A2B2D2E303133353638390C
:100910003B3D3F4042444647494B4D4F5152545650
:10092000585A5C5E60626466686A6C6E7072747558
:1009300077797B7D08070000580900080000002037
:10094000200000002801000878090008200000208D
:1009500060060000440100080000000000000000E4
:10096000E803000028000000000000000000000074
:0809700000000000000000007F
:040000050800018965
:00000001FF
