:020000040800F2
:10000000880600208901000891010008930100087A
:100010009501000897010008990100080000000000
:100020000000000000000000000000009B0100082C
:100030009D010008000000009F010008A3040008C3
:10004000A3010008A3010008A3010008A301000800
:10005000A3010008A3010008A3010008A3010008F0
:10006000A3010008A3010008A3010008A3010008E0
:10007000A3010008A3010008A3010008A3010008D0
:10008000A3010008A3010008A3010008A3010008C0
:10009000A3010008A3010008A3010008A3010008B0
:1000A000A3010008A3010008A3010008A3010008A0
:1000B00061050008A3010008A3010008A3010008CE
:1000C000A3010008A3010008A3010008A301000880
:1000D000A3010008A3010008A3010008A301000870
:1000E000A3010008A3010008A301000800F002F822
:1000F00000F03AF80AA090E8000C82448344AAF188
:100100000107DA4501D100F02FF8AFF2090EBAE885
:100110000F0013F0010F18BFFB1A43F0010318473B
:10012000FC1100001C120000103A24BF78C878C1EE
:10013000FAD8520724BF30C830C144BF04680C60ED
:10014000704700000023002400250026103A28BF35
:1001500078C1FBD8520728BF30C148BF0B60704739
:100160001FB51FBD10B510BD00F031F81146FFF7E7
:10017000F7FF00F0B7FA00F04FF803B4FFF7F2FF13
:1001800003BC00F057F800000948804709480047C1
:10019000FEE7FEE7FEE7FEE7FEE7FEE7FEE7FEE737
:1001A000FEE7FEE704480549054A064B7047000094
:1001B00001050008ED0000088800002088060020E6
:1001C00088020020880200207047704770477546FB
:1001D00000F02CF8AE4605006946534620F00700B3
:1001E000854618B020B5FFF7DDFFBDE820404FF091
:1001F00000064FF000074FF000084FF0000B21F011
:100200000701AC46ACE8C009ACE8C009ACE8C009DD
:10021000ACE8C0098D46704710B50446AFF30080C6
:100220002046BDE81040FFF7A8BF00000048704717
:100230002800002001491820ABBEFEE7260002007E
:10024000704700003948806940F400703749886180
:100250000846406820F4804048600846406840F402
:1002600000404860002032490860091D086030489D
:100270000C30006820F007002D490C31086008465A
:10028000006820F46060086000202949343108606B
:100290000846006840F4801008600846006840F096
:1002A000010008600846006840F4C030086020483B
:1002B000001D006820F002001D49091D0860081F8C
:1002C000006840F48070091F0860081D006840F451
:1002D000E040091D08600846006840F400400860DE
:1002E0000846006840F001000860012000E0401C62
:1002F00042F210718842FADB0D48001D006840F0A0
:1003000004000B49091D086000BF0948001D006872
:1003100000F004000028F8D10548001D006820F016
:1003200001000349091D08607047000000100240E9
:10033000042401402648806940F400602449886113
:100340002448006820F00C00224908600846006834
:1003500040F0080008600846006820F003000860CC
:100360000846006840F00300086006201A4908802B
:10037000FE20091D088018480838008840F0010058
:100380001549083908800846008820F002000880D6
:1003900011481C30008840F400400F491C3108808F
:1003A00060200D49103908800B482838008840F03B
:1003B00010000949283908800846008820F06000AC
:1003C00008800846008840F0080008807047000058
:1003D0000010024004080140282C01402D4800680C
:1003E0002D4908402B4908600846006840F48030D9
:1003F000086000BF2748006800F400300028F9D0EA
:100400002448406820F003002249486008464068BC
:1004100040F0010048602148006840F010001F498A
:1004200008600846006820F003000860084600687D
:1004300040F0020008601748406820F47C1015491D
:1004400048600846406840F480304860084640688C
:1004500040F4E01048600846006840F08070086092
:1004600000BF0C48006800F000700028F9D009486F
:10047000406820F00300074948600846406840F0A3
:100480000200486000BF0348406800F00C000828E4
:10049000F9D1704700100240FFFFF6FE0020024035
:1004A000704710B500F078F910BD000030B54FF47A
:1004B000E161481EB0F1807F00D31BE0481E4FF081
:1004C000E022506150170F22002804DB13071C0E96
:1004D000094B1C5406E013071D0E084B00F00F04D7
:1004E000241F1D5500BF00204FF0E022906107201F
:1004F000106100BF30BD000000E400E018ED00E036
:1005000010B51348006840F0010011490860084622
:100510004068104908400E494860084600680E4986
:1005200008400B4908600846006820F480200860F5
:100530000846406820F4FE0048604FF41F008860C1
:10054000FFF7AEFF4FF000600449086010BD0000E7
:10055000001002400000FFF8FFFFF6FE08ED00E08B
:1005600000B54FF08040008A20F001004FF080413C
:10057000088200F0C3F800BD2DE9F04F87B04E4867
:1005800000684E49096808444C4908604C480068B6
:10059000B0F5756F7ED14B4800680A2830DA4948BB
:1005A0000068401C4749086044480068322190FBBD
:1005B000F1F042490860444800680968084442492B
:1005C0000860404800680A2806D1084600680A21E9
:1005D00090FBF1F03C4908604FF47A603B490860B9
:1005E00008460068642190FBF1F0394908603748FB
:1005F000006849F6404191FBF0F03649086054E04C
:100600002E480068322190FBF1F02F490968401A0A
:100610002A49086008460068002801DA00200860BE
:100620002948006800F0A5FB804600222A4B00F014
:10063000B5FC06460F462148006800F09AFB32469A
:100640003B46CDE9000100F00DFA044600224FF0D0
:10065000804300F0A5FB0022204BCDE9020100F011
:100660009FFB824600221E4B00F054F9CDE90401A5
:1006700000F050FB1549086008460068B0F57A6F35
:1006800002DD4FF47A60086010480068642190FB36
:10069000F1F000E00CE00E4908600C48006849F6F3
:1006A000404191FBF0F00B490860002003490860CD
:1006B00007B0BDE8F08F0000000000201800002007
:1006C0001C00002014000020240000201000002046
:1006D0000C0000200800002000FEAF400078AE4073
:1006E00000005940FFF77AFE00F076F8FFF722FE8F
:1006F000FFF7A8FDFFF7DAFE00BFFEE7234800681A
:1007000040F00100214908600846006840F40010EC
:10071000086000BF1D480838006800F0020000288B
:10072000F8D01A480838006820F002001749083944
:1007300008601648006820F001001449086013485A
:10074000343000681249086010483830006848604A
:100750001048006820F470400E49086008460068A0
:1007600040F4005008600846006820F00F00086060
:100770000846006840F00200086006481030006833
:1007800040F0090003491031086070470824014017
:10079000000000200008014010B500F07BF80D4873
:1007A0000068502190FBF1F201FB120018B900F033
:1007B0009DF8FFF7E1FE07480068B0F57A6F05DAAB
:1007C00004480068401C0349086002E00020014919
:1007D000086010BD1C0000202B48806940F0050017
:1007E000294988610846C06940F00100C86127486E
:1007F000006820F0C000254908600846006840F005
:10080000C00008600846006820F030000860084614
:10081000006840F0300008604720C90408850920BE
:100820008885052008878007008C40F03000088408
:100830001748008840F40040A1F844004FF4C0403D
:1008400008830846008820F01000088008460088C9
:1008500020F0600008800846008840F0080008800A
:100860000846808940F0010088811C20002809DBAF
:1008700000F01F02012191404209920002F1E022A2
:10088000C2F8001100BF704700100240000801408C
:100890004400004010490968104A1268914205DA84
:1008A0000D490968491C0C4A116002E000210A4AFE
:1008B00011600B490968084A126801FB02F00949F6
:1008C000095C094A118008493439098841F001015D
:1008D000054A343A118070472000002008000020AB
:1008E0000C00002088110008342C014008480068E2
:1008F00020F47040064908600846006820F00F00A8
:100900000860C804008840F00100C90408807047EE
:100910000008014010B591EA030F48BF83F000437F
:1009200000F15083841A71EB030C05D2121943EBCA
:100930000C03001B61EB0C01DFF824E14FEA1154BA
:10094000A4EB135C1EEA430F18BF9EEA445F73D00A
:1009500023EA0E03DCF1200E21EA045143F4801354
:1009600032D322FA0CFE10EB0E0023FA0CFE41EB00
:100970000E01CCF1200E03FA0EFE10EB0E0051F129
:100980000001B1F5801FCCF1200E32D201EB0451F1
:1009900012FA0EF2BDE8104058BF7047401C38BF35
:1009A0005FEA420218BF7047002814BF20F0010020
:1009B00041F100014FEA410313F5001F38BF7047B2
:1009C000A1F1C04100F0E4BA012A43EB0302ACF10B
:1009D000200CDCF11F0E32BF4FF0000E23FA0CF397
:1009E00010EB030041EB0451B4EB115FD0D0A1EB4D
:1009F000045101F5801149085FEA300001EB045110
:100A00000ED350F1000038BF12FA0EFE08D1BDE837
:100A10001040C9E7401C38BF5FEA4202CAD1C3E7B1
:100A2000BDE810404FEA410313F5001F38BF70477F
:100A3000A1F1C04100F0ACBA9EEA445F08D011EACF
:100A40005E0FBDE8104004BF01F000410020704778
:100A5000BDE8104070B500F04DFA00BF64FBBE3E2B
:100A60000000E0FF2DE9C04130B4DFF8A0C23CEA4D
:100A7000111418BF3CEA131400F0EC8081EA03055E
:100A80001CEA111444EAD57418BF1CEA131500F0CF
:100A9000C780A4EB05044FF0004545EAC12145EAB3
:100AA000C32341EA505143EA525304F17F749942FF
:100AB00004F500344FEAC0204FEAC22208BF90423A
:100AC00000F09C804FEA13650FF24016765D4FEA06
:100AD000134506FB05F7C7F1807706FB07F74FEADA
:100AE000D737A7FB03687642C8F58038A7FB06CE48
:100AF00038BFA8F1010807FB08E64FF0000EA6FB7F
:100B0000028CE6FB03CEDCF1000CCEF1004E38BFC8
:100B1000AEF1010EA6FB0C584FF000074FF0000598
:100B2000E6FB0E87A1FB08C6A0FB07CE16EB0E0660
:100B300045F10005E1FB076515F1E04E7EBFA4F528
:100B400080345FEA46066D4116F1800745F10005E5
:100B50004FEA17274FEA066647EA0567A6F1DE4621
:100B6000B6F1805F4FEA15251FD9384624F0010CF5
:100B700005EBC471BCF1FE6F01EB0C1102D8F0BCA7
:100B8000BDE8008124425CBF01F5801E9EEAC47F5F
:100B900002D4F0BCBDE80081244238D4F0BCA1F1FD
:100BA000C041BDE8004100F0F3B94FEAD22242EA69
:100BB00043524FEAD323A7FB02864FEAD02040EAF4
:100BC000415007FB03661EEA0E0F4FEAD12105FBD9
:100BD000026658BFA6EB0056B6EB00564FEA520E1F
:100BE0004EEAC37E18EB0E0E56EB530EBDD518EB36
:100BF00002085E417F1C55F10005B6E74FF48015F1
:100C00004FF000074FF000064FF00008ADE7F0BCD2
:100C10004FF0000001F1C04101F00041BDE800814A
:100C200011EA0C1F0CEA131500D00CE013EA0C1F9C
:100C300000F025804FF00000F0BC81EA030101F0D4
:100C40000041BDE80081F0BCBDE8004181EA03013C
:100C500000F09EB9F0BCBDE8004170B500F04AF963
:100C6000097EFC3E00F007B881EA03014FF0000066
:100C700001F00041704781EA030100F089B9F0BC3E
:100C8000BDE800414FF0000021497047FFFDFBF92E
:100C9000F7F5F4F2F0EEEDEBE9E8E6E4E3E1E0DEAF
:100CA000DDDBDAD8D7D5D4D3D1D0CFCDCCCBCAC821
:100CB000C7C6C5C4C2C1C0BFBEBDBCBBBAB9B8B748
:100CC000B6B5B4B3B2B1B0AFAEADACABAAA9A8A83B
:100CD000A7A6A5A4A3A3A2A1A09F9F9E9D9C9C9B09
:100CE0009A999998979796959594939392919190B4
:100CF0008F8F8E8E8D8C8C8B8B8A89898888878745
:100D00008685858484838382828181800000FF07B9
:100D10000000F87F4FEA41034FEA5353A3F5806385
:100D2000D3F11E03C8BFD3F1210C0CDD4FF00042FC
:100D300042EAC12242EA505232FA03FC8CEAE17CD8
:100D4000ACEBE1707047102BC4BF0020704703F577
:100D5000787CBCF1FF3F04D06FF0004282EA2100B2
:100D6000704770B500F0C6F84992248000207047A3
:100D7000F2E710F0004248BF4042B0FA80F310FAA8
:100D800003F10AD0C3F11D0303F580634FEA41501C
:100D900002EB035202EBD12170474FF00000704785
:100DA000DFF848C170B51CEA111E1EBF1CEA1315FE
:100DB0009EEA0C0F95EA0C0F00F06F8081EA0304A5
:100DC00023EA4C134EEAD47E21EA4C1141F48011FF
:100DD00043F48013AE44A1FB024CA0FB0365AEF1CB
:100DE0007F7E361955EB0C05A1FB034C4CF100033B
:100DF000A0FB021C16EB0C06654153F100030942EF
:100E000018BF46F0010613F4007F0BD14FEA0331FF
:100E10004FEA0530340341EA155140EA16506FF0AD
:100E200003020AE04FEAC3214FEAC520F40241EA77
:100E3000555140EA56506FF0020202EB2E4201EB90
:100E4000025585EACE710AD05FEA440C18BF24F03F
:100E5000004450F1000041F1000120EAD47040F25A
:100E6000FE7C624500D270BDA84214BF4FF08044A2
:100E70004FF04044002E08BF0024BEF1806FA8BF91
:100E8000A1F1C041BDE8704080F282804FF00000C7
:100E900001F1C04101F0004170479EEA0C0F0CEADD
:100EA000131518BF95EA0C0F06D04FF0000081EA29
:100EB000030E0EF0004170BD00F01CF88900013EE9
:100EC00000F007B800F009B84FEA430C5FEA5C5C39
:100ED00008D081EA030100F05BB84FEA410C5FEAF9
:100EE0005C5CF6D14FF00000014970470000FF073D
:100EF0000000F87F0EF1020E2EF0030E5EF8046B78
:100F0000364205D4012A43EB030515F5001F12D81C
:100F1000012841EB010C1CF5001F0CD80ED14FEA43
:100F2000D17C15F5001F0CEB4C0C0CF1020C08BF2A
:100F30004CEBD37C04E04FF0080C01E04FEAD37C8B
:100F40000CEB4C0526FA05F606F00706B6F1040C84
:100F500006D20EEB860CBDE870404CF0010C6047E9
:100F6000DFE80CF0090B02024FF000414FF00000E7
:100F7000A1F5002170BD19461046012851EB01046E
:100F800018BFD4F5001484BF002001F0004170BDEB
:100F90000808A0F500114FEA3101704791EA030FEC
:100FA00010B581F000413FF5BDAC83F0004300F087
:100FB00009B8000010B591EA030F48BF83F0004361
:100FC0003FF5B0AC841A71EB030C07D212198CF008
:100FD000004C43EB0C03001B61EB0C01DFF8A4E1B8
:100FE0004FEA1154A4EB135C1EEA430F18BF9EEAAC
:100FF000445F00F0B08023EA6E03524221EA0451BC
:10100000C3EB6E0338BF5B1EDCF1200E25D322FA42
:101010000CFE10EB0E0043FA0CFE41EB0E01CCF17E
:10102000200E03FA0EFE10EB0E0051F10001CCF180
:10103000200E29D412FA0EF201EB0451BDE8104043
:1010400058BF7047401C1CBFB2F1004F70470028CA
:101050000CBF491C20F00100704712EB020E43EB5D
:10106000030218BF4FF0010E4EEA4202ACF1200C11
:10107000DCF11E0E54D943FA0CFE10EB0E0051F1B8
:10108000FF31CCF11E0ED5D50EF1010E12FA0EFE77
:10109000404141EB010101EB445C5FEA5C5C10D92B
:1010A00010EBDE7001EB045138BFBEF1004FBDE81C
:1010B000104018BF704700280CBF491C20F00100E9
:1010C000704730D24FEAD42C11F5001124F400649B
:1010D0001BD0B1FA81F20B3AA41AA41ED2F120035C
:1010E000914030FA03F31943904001EBCC71002C8E
:1010F00001EB0451BDE81040A8BF704701F1C041A9
:101100004FF0000001F000417047B0FA80F310FA90
:1011100003F100D110BDE41A173C4805C90AE4E701
:1011200001EB045110BD491001EB0451BDE8104022
:101130004FEA300002E04FF0000170474A0008BF5C
:101140000042F8D0B2F5001F28BF704701F00041FF
:101150004FF0000070479EEA445F07D011EA5E0F2F
:10116000BDE8104004BF002100207047BDE81040DA
:1011700070B5FFF7BFFE00BF40DFF63E83F00041D1
:10118000104670470000E0FF80828486888A8B8D3D
:101190008F91939597999B9D9FA1A3A5A7A9ABAD6F
:1011A000AEB0B2B4B6B8B9BBBDBFC0C2C4C6C7C981
:1011B000CACCCECFD1D2D4D5D7D8DADBDCDEDFE0D3
:1011C000E2E3E4E5E7E8E9EAEBECEDEEEFF0F1F27B
:1011D000F3F4F5F5F6F7F7F8F9F9FAFAFBFBFCFC8E
:1011E000FDFDFDFEFEFEFEFFFFFFFFFFFFFFFFFF19
:1011F000FFFFFEFEFEFEFDFDFDFCFCFBFBFAFAF927
:10120000F9F8F7F7F6F5F5F4F3F2F1F0EFEEEDECAF
:10121000EBEAE9E8E7E5E4E3E2E0DFDEDCDBDAD8AD
:10122000D7D5D4D2D1CFCECCCAC9C7C6C4C2C0BF0D
:10123000BDBBB9B8B6B4B2B0AEADABA9A7A5A3A1BA
:101240009F9D9B99979593918F8D8B8A8886848299
:10125000807D7B7977757472706E6C6A6866646283
:10126000605E5C5A58565452514F4D4B4947464464
:1012700042403F3D3B393836353331302E2D2B2A15
:10128000282725242321201F1D1C1B1A181716157B
:1012900014131211100F0E0D0C0B0A0A090808077F
:1012A0000606050504040303020202010101010010
:1012B0000000000000000000000001010101020226
:1012C000020303040405050606070808090A0A0BB9
:1012D0000C0D0E0F1011121314151617181A1B1CD3
:1012E0001D1F202123242527282A2B2D2E30313382
:1012F000353638393B3D3F4042444647494B4D4FD8
:1013000051525456585A5C5E60626466686A6C6EEC
:101310007072747577797B7D080700003C130008B4
:1013200000000020280000002801000864130008C5
:1013300028000020600600004401000800000000B2
:10134000000000000A00000090010000640000009E
:10135000000000000000000000000000000000008D
:041360000000000089
:040000050800018965
:00000001FF
