:020000040800F2
:10000000780600208901000891010008930100088A
:100010009501000897010008990100080000000000
:100020000000000000000000000000009B0100082C
:100030009D010008000000009F010008370500082E
:10004000A3010008A3010008A3010008A301000800
:10005000A3010008A3010008A3010008A3010008F0
:10006000A3010008A3010008A3010008A3010008E0
:10007000A3010008A3010008A3010008A3010008D0
:10008000A3010008A3010008A3010008A3010008C0
:10009000A3010008A3010008A3010008A3010008B0
:1000A000A3010008D1050008A3010008A30100086E
:1000B000A3010008A3010008A3010008A301000890
:1000C000A3010008A3010008A3010008A301000880
:1000D000A3010008A3010008A3010008A301000870
:1000E000A3010008A3010008A301000800F002F822
:1000F00000F03AF80AA090E8000C82448344AAF188
:100100000107DA4501D100F02FF8AFF2090EBAE885
:100110000F0013F0010F18BFFB1A43F0010318473B
:10012000FC0500001C060000103A24BF78C878C106
:10013000FAD8520724BF30C830C144BF04680C60ED
:10014000704700000023002400250026103A28BF35
:1001500078C1FBD8520728BF30C148BF0B60704739
:100160001FB51FBD10B510BD00F031F81146FFF7E7
:10017000F7FF00F05BFA00F04FF803B4FFF7F2FF6F
:1001800003BC00F057F800000948804709480047C1
:10019000FEE7FEE7FEE7FEE7FEE7FEE7FEE7FEE737
:1001A000FEE7FEE704480549054A064B7047000094
:1001B00071050008ED000008780000207806002096
:1001C000780200207802002070477047704775461B
:1001D00000F02CF8AE4605006946534620F00700B3
:1001E000854618B020B5FFF7DDFFBDE820404FF091
:1001F00000064FF000074FF000084FF0000B21F011
:100200000701AC46ACE8C009ACE8C009ACE8C009DD
:10021000ACE8C0098D46704710B50446AFF30080C6
:100220002046BDE81040FFF7A8BF00000048704717
:100230001400002001491820ABBEFEE72600020092
:10024000704700003948806940F400703749886180
:100250000846406820F4804048600846406840F402
:1002600000404860002032490860091D086030489D
:100270000C30006820F007002D490C31086008465A
:10028000006820F46060086000202949343108606B
:100290000846006840F4801008600846006840F096
:1002A000010008600846006840F4C030086020483B
:1002B000001D006820F002001D49091D0860081F8C
:1002C000006840F48070091F0860081D006840F451
:1002D000E040091D08600846006840F400400860DE
:1002E0000846006840F001000860012000E0401C62
:1002F00042F210718842FADB0D48001D006840F0A0
:1003000004000B49091D086000BF0948001D006872
:1003100000F004000028F8D10548001D006820F016
:1003200001000349091D08607047000000100240E9
:10033000042401401348806940F004001149886199
:100340001148006820F00C000F490860084600685A
:1003500040F0080008600846006820F003000860CC
:100360000846006840F0030008600648406820F036
:10037000E060044948600846406840F0E06048603A
:1003800070470000001002400408014010B52D48DD
:10039000806940F6050108432A4988612A480068B7
:1003A00020F44040284908600846006840F40040B6
:1003B00008600846006820F440500860084600685D
:1003C00040F4405008604720204908800920091D5A
:1003D000088005201D49183108801C48083800880D
:1003E00040F4405019490839088018481C300088EA
:1003F00040F4004015491C3108804FF4C0401349B7
:100400000C39088011482838008820F010000F4966
:10041000283908800846008820F0600008800846D7
:10042000008840F00800088008481C38008840F028
:10043000010006491C39088062B6192000F0D4F882
:1004400010BD00000010024004080140282C0140AB
:100450002E4800682E4908402C490860084600686C
:1004600040F48030086000BF2848006800F4003085
:100470000028F9D02548406820F00300234948604F
:100480000846406840F0010048602248006840F09B
:100490001000204908600846006820F0030008604A
:1004A0000846006840F0020008601848406820F4E0
:1004B0007C10164948600846406840F48030486027
:1004C0000846406840F4E01048600846006840F084
:1004D0008070086000BF0D48006800F000700028C0
:1004E000F9D00A48406820F00300084948600846EF
:1004F000406840F00200486000BF0448406800F0D7
:100500000C000828F9D100207047000000100240BC
:10051000FFFFF6FE0020024010B50021481E00F04B
:1005200071F8192000F060F80221192000F06AF833
:1005300062B610BD704700B500F0D6F800BD10B52A
:1005400048F6A044601EB0F1807F00D30FE0601E2B
:100550004FF0E02148610F214FF0FF3000F052F8DA
:1005600000204FF0E02188610720086100BF10BD26
:1005700010B51348006840F00100114908600846B2
:100580004068104908400E494860084600680E4916
:1005900008400B4908600846006820F48020086085
:1005A0000846406820F4FE0048604FF41F00886051
:1005B000FFF7C0FF4FF000600449086010BD000065
:1005C000001002400000FFF8FFFFF6FE08ED00E01B
:1005D00000B50448008820F001000249088000F0BE
:1005E00035F800BD102C0140002809DB00F01F0287
:1005F000012191404209920002F1E022C2F800116B
:100600007047000010B5002804DB0A07130E054AE6
:10061000135406E00A07140E034A00F00F031B1FD1
:10062000D45410BD00E400E018ED00E0FFF710FF27
:10063000FFF780FE72B6FFF782FFFFF7A7FEFFF716
:1006400001FEFFF769FF00BFFEE7000023480068D6
:1006500040F00100214908600846006840F400109D
:10066000086000BF1D480838006800F0020000283C
:10067000F8D01A480838006820F0020017490839F5
:1006800008601648006820F001001449086013480B
:1006900034300068124908601048383000684860FB
:1006A0001048006820F470400E4908600846006851
:1006B00040F4005008600846006820F00F00086011
:1006C0000846006840F002000860064810300068E4
:1006D00040F00900034910310860704708240140C8
:1006E000000000200008014000B500F001F800BD46
:1006F0000848006820F47040064908600846006811
:1007000020F00F0008600448008840F00100024912
:100710000880704700080140002C01403C07000899
:100720000000002014000000280100085007000805
:1007300014000020640600004401000800000000CE
:1007400000000000000000000000000000000000A9
:040000050800018965
:00000001FF
