:020000040800F2
:10000000680600208901000891010008930100089A
:100010009501000897010008990100080000000000
:100020000000000000000000000000009B0100082C
:100030009D010008000000009F010008090500085C
:10004000A3010008A3010008A3010008A301000800
:10005000A3010008A3010008A3010008A3010008F0
:10006000A3010008A3010008A3010008A3010008E0
:10007000A3010008A3010008A3010008A3010008D0
:10008000A3010008A3010008A3010008A3010008C0
:10009000A3010008A3010008A3010008A3010008B0
:1000A000A3010008A3010008A3010008A3010008A0
:1000B000A3010008A3010008A3010008A301000890
:1000C000A3010008A3010008A3010008A301000880
:1000D000A3010008A3010008A3010008A301000870
:1000E000A3010008A3010008A301000800F002F822
:1000F00000F03AF80AA090E8000C82448344AAF188
:100100000107DA4501D100F02FF8AFF2090EBAE885
:100110000F0013F0010F18BFFB1A43F0010318473B
:10012000E404000004050000103A24BF78C878C138
:10013000FAD8520724BF30C830C144BF04680C60ED
:10014000704700000023002400250026103A28BF35
:1001500078C1FBD8520728BF30C148BF0B60704739
:100160001FB51FBD10B510BD00F031F81146FFF7E7
:10017000F7FF00F00DFA00F04FF803B4FFF7F2FFBD
:1001800003BC00F057F800000948804709480047C1
:10019000FEE7FEE7FEE7FEE7FEE7FEE7FEE7FEE737
:1001A000FEE7FEE704480549054A064B7047000094
:1001B00031050008ED0000086800002068060020F6
:1001C000680200206802002070477047704775463B
:1001D00000F02CF8AE4605006946534620F00700B3
:1001E000854618B020B5FFF7DDFFBDE820404FF091
:1001F00000064FF000074FF000084FF0000B21F011
:100200000701AC46ACE8C009ACE8C009ACE8C009DD
:10021000ACE8C0098D46704710B50446AFF30080C6
:100220002046BDE81040FFF7A8BF00000048704717
:100230000800002001491820ABBEFEE7260002009E
:10024000704700003A48006820F470403849086060
:100250000846006820F00F0008603648806940F4C6
:100260000070344988610846406820F48040486046
:100270000846406840F40040486000202E4908606D
:10028000091D08602C480C30006820F007002A493E
:100290000C3108600846006820F4606008600020A7
:1002A0002549343108600846006840F48010086031
:1002B0000846006840F0010008600846006840F405
:1002C000C03008601C48001D006820F002001A4978
:1002D000091D0860081F006840F48070091F08604D
:1002E000081D006840F4E040091D086008460068E9
:1002F00040F4004008600846006840F001000860D3
:10030000012000E0401C42F210718842FADB0A48EA
:10031000001D006840F004000749091D086000BF87
:100320000548001D006800F004000028F8D170475F
:100330000008014000100240042401401348806975
:1003400040F00400114988611148006820F00C0059
:100350000F4908600846006840F008000860084639
:10036000006820F0030008600846006840F00300C1
:1003700008600648406820F0E0600449486008468C
:10038000406840F0E06048607047000000100240A4
:10039000040801402648806940F6050108432449C5
:1003A00088612448006820F44040224908600846DB
:1003B000006840F4004008600846006820F440509F
:1003C00008600846006840F44050086047201A4919
:1003D00008800920091D0880052017491831088068
:1003E00015480838008840F44050134908390880FF
:1003F00011481C30008840F400400F491C3108802F
:100400004FF4C0400C490C3908800B48283800884C
:1004100020F010000849283908800846008820F09C
:10042000600008800846008840F008000880704797
:100430000010024004080140282C01402E480068AA
:100440002E4908402C4908600846006840F4803076
:10045000086000BF2848006800F400300028F9D088
:100460002548406820F0030023494860084640685A
:1004700040F0010048602248006840F01000204928
:1004800008600846006820F003000860084600681D
:1004900040F0020008601848406820F47C101649BB
:1004A00048600846406840F480304860084640682C
:1004B00040F4E01048600846006840F08070086032
:1004C00000BF0D48006800F000700028F9D00A480D
:1004D000406820F00300084948600846406840F042
:1004E0000200486000BF0448406800F00C00082883
:1004F000F9D100207047000000100240FFFFF6FE17
:1005000000200240704700000348008840F00100CE
:100510000149088070470000002C014042F2107031
:100520004FF0E021486188610720086170470000B2
:1005300010B51348006840F00100114908600846F2
:100540004068104908400E494860084600680E4956
:1005500008400B4908600846006820F480200860C5
:100560000846406820F4FE0048604FF41F00886091
:10057000FFF7C8FF4FF000600449086010BD00009D
:10058000001002400000FFF8FFFFF6FE08ED00E05B
:10059000FFF754FFFFF7D2FEFFF7C0FFFFF7FAFEA9
:1005A000FFF750FE26E01448006840F4001012499E
:1005B000086000BF10480838006800F002000028FA
:1005C000F8D00D480838006820F002000A490839C0
:1005D0000860094834300068084908600648383027
:1005E000006807490860012000E0401C42F21071D9
:1005F0008842FADBD7E70000082401400000002011
:10060000040000202406000800000020080000006C
:10061000280100082C0600080800002060060000E1
:0C06200044010008000000000000000081
:040000050800018965
:00000001FF
