:020000040800F2
:10000000600600206D0100087501000877010008F6
:10001000790100087B0100087D0100080000000054
:100020000000000000000000000000007F01000848
:10003000810100080000000083010008850100081C
:100040008701000887010008870100088701000870
:100050008701000887010008870100088701000860
:100060008701000887010008870100088701000850
:100070008701000887010008870100088701000840
:100080008701000887010008870100088701000830
:100090008701000887010008870100088701000820
:1000A0008701000887010008870100088701000810
:1000B0008701000887010008870100088701000800
:1000C00087010008870100088701000887010008F0
:1000D00087010008870100088701000887010008E0
:1000E00087010008870100088701000800F002F876
:1000F00000F02CF80AA090E8000C82448344AAF196
:100100000107DA4501D100F021F8AFF2090EBAE893
:100110000F0013F0010F18BFFB1A43F0010318473B
:100120007402000084020000002300240025002641
:10013000103A28BF78C1FBD8520728BF30C148BF4A
:100140000B6070471FB51FBD10B510BD00F031F832
:100150001146FFF7F7FF00F015F900F04FF803B470
:10016000FFF7F2FF03BC00F057F800000948804792
:1001700009480047FEE7FEE7FEE7FEE7FEE7FEE789
:10018000FEE7FEE7FEE7FEE704480549054A064BA1
:100190007047000025030008ED0000086000002003
:1001A0006006002060020020600200207047704757
:1001B0007047754600F02CF8AE4605006946534678
:1001C00020F00700854618B020B5FFF7DDFFBDE839
:1001D00020404FF000064FF000074FF000084FF0AE
:1001E000000B21F00701AC46ACE8C009ACE8C0093F
:1001F000ACE8C009ACE8C0098D46704710B50446AC
:10020000AFF300802046BDE81040FFF7A8BF000014
:10021000004870470000002001491820ABBEFEE7EF
:1002200026000200704700001348806940F0040077
:10023000114988611148006820F00C000F490860DE
:100240000846006840F0080008600846006820F092
:10025000030008600846006840F003000860064894
:10026000406820F0E060044948600846406840F07B
:10027000E060486070470000001002400408014040
:100280002548006825490840234908600846006859
:1002900040F48030086000BF1F48006800F4003060
:1002A0000028F9D01C48406820F003001A49486033
:1002B0000846406840F0010048600846406820F465
:1002C0007C1048600846406840F48030486008462A
:1002D000406840F4A01048600846006840F0807014
:1002E000086000BF0C48006800F000700028F9D0DA
:1002F0000948406820F00300074948600846406804
:1003000040F00200486000BF0348406800F00C0065
:100310000828F9D10020704700100240FFFFF6FEC8
:100320007047000010B51348006840F00100114903
:10033000086008464068104908400E494860084671
:1003400000680E4908400B4908600846006820F420
:10035000802008600846406820F4FE0048604FF4A2
:100360001F008860FFF7DCFF4FF000600449086061
:1003700010BD0000001002400000FFF8FFFFF6FE75
:1003800008ED00E000B5FFF77BFFFFF74DFF002011
:1003900000BD0000A403000800000020600600006B
:0403A0002801000828
:040000050800016D81
:00000001FF
